{
  "contractName": "election",
  "abi": [
    {
      "constant": true,
      "inputs": [
        {
          "name": "",
          "type": "uint256"
        }
      ],
      "name": "candidates",
      "outputs": [
        {
          "name": "id",
          "type": "uint256"
        },
        {
          "name": "name",
          "type": "string"
        },
        {
          "name": "voteCount",
          "type": "uint256"
        }
      ],
      "payable": false,
      "stateMutability": "view",
      "type": "function"
    },
    {
      "constant": true,
      "inputs": [
        {
          "name": "",
          "type": "address"
        }
      ],
      "name": "voters",
      "outputs": [
        {
          "name": "",
          "type": "bool"
        }
      ],
      "payable": false,
      "stateMutability": "view",
      "type": "function"
    },
    {
      "constant": true,
      "inputs": [],
      "name": "candidateCount",
      "outputs": [
        {
          "name": "",
          "type": "uint256"
        }
      ],
      "payable": false,
      "stateMutability": "view",
      "type": "function"
    },
    {
      "inputs": [],
      "payable": false,
      "stateMutability": "nonpayable",
      "type": "constructor"
    },
    {
      "anonymous": false,
      "inputs": [
        {
          "indexed": false,
          "name": "indexed_candidateId",
          "type": "uint256"
        }
      ],
      "name": "votedEvent",
      "type": "event"
    },
    {
      "constant": false,
      "inputs": [
        {
          "name": "_candidateId",
          "type": "uint256"
        }
      ],
      "name": "vote",
      "outputs": [],
      "payable": false,
      "stateMutability": "nonpayable",
      "type": "function"
    }
  ],
  "bytecode": "0x608060405234801561001057600080fd5b5061005e6040805190810160405280600481526020017f4a61636b000000000000000000000000000000000000000000000000000000008152506100b0640100000000026401000000009004565b6100ab6040805190810160405280600481526020017f4d617279000000000000000000000000000000000000000000000000000000008152506100b0640100000000026401000000009004565b6101d1565b60026000815480929190600101919050555060606040519081016040528060025481526020018281526020016000815250600080600254815260200190815260200160002060008201518160000155602082015181600101908051906020019061011b92919061012c565b506040820151816002015590505050565b828054600181600116156101000203166002900490600052602060002090601f016020900481019282601f1061016d57805160ff191683800117855561019b565b8280016001018555821561019b579182015b8281111561019a57825182559160200191906001019061017f565b5b5090506101a891906101ac565b5090565b6101ce91905b808211156101ca5760008160009055506001016101b2565b5090565b90565b61040e806101e06000396000f300608060405260043610610062576000357c0100000000000000000000000000000000000000000000000000000000900463ffffffff1680630121b93f146100675780633477ee2e14610094578063a3ec138d14610148578063a9a981a3146101a3575b600080fd5b34801561007357600080fd5b50610092600480360381019080803590602001909291905050506101ce565b005b3480156100a057600080fd5b506100bf600480360381019080803590602001909291905050506102fa565b6040518084815260200180602001838152602001828103825284818151815260200191508051906020019080838360005b8381101561010b5780820151818401526020810190506100f0565b50505050905090810190601f1680156101385780820380516001836020036101000a031916815260200191505b5094505050505060405180910390f35b34801561015457600080fd5b50610189600480360381019080803573ffffffffffffffffffffffffffffffffffffffff1690602001909291905050506103bc565b604051808215151515815260200191505060405180910390f35b3480156101af57600080fd5b506101b86103dc565b6040518082815260200191505060405180910390f35b600160003373ffffffffffffffffffffffffffffffffffffffff1673ffffffffffffffffffffffffffffffffffffffff16815260200190815260200160002060009054906101000a900460ff1615151561022757600080fd5b60008111801561023957506002548111155b151561024457600080fd5b60018060003373ffffffffffffffffffffffffffffffffffffffff1673ffffffffffffffffffffffffffffffffffffffff16815260200190815260200160002060006101000a81548160ff021916908315150217905550600080828152602001908152602001600020600201600081548092919060010191905055507ffff3c900d938d21d0990d786e819f29b8d05c1ef587b462b939609625b684b16816040518082815260200191505060405180910390a150565b6000602052806000526040600020600091509050806000015490806001018054600181600116156101000203166002900480601f0160208091040260200160405190810160405280929190818152602001828054600181600116156101000203166002900480156103ac5780601f10610381576101008083540402835291602001916103ac565b820191906000526020600020905b81548152906001019060200180831161038f57829003601f168201915b5050505050908060020154905083565b60016020528060005260406000206000915054906101000a900460ff1681565b600254815600a165627a7a72305820c7c42c6a6db0e13f4f322f1207b4c2ce5139604fd5da8f0094dd500900a592710029",
  "source": "pragma solidity ^0.4.23;\r\ncontract election {\r\n    // �ṹ��\r\n    struct Candidate {\r\n        uint id;\r\n        string name;\r\n        uint voteCount;\r\n    }\r\n    // �¼�\r\n    event votedEvent(uint indexed_candidateId);\r\n    // �洢�ṹ��\r\n    mapping(uint => Candidate) public candidates;\r\n    // �Ƿ��Ѿ�ͶƱ��\r\n    mapping(address => bool) public voters;\r\n    // ������\r\n    uint public candidateCount;\r\n    // ���캯��\r\n    constructor() public {\r\n        addCandidate(\"Jack\");\r\n\t\taddCandidate(\"Mary\");\r\n    }\r\n    // ���Ӻ�ѡ��\r\n    function addCandidate(string _name) private {\r\n        candidateCount++;\r\n        candidates[candidateCount] = Candidate(candidateCount, _name, 0);\r\n    }\r\n    // ͶƱ\r\n    function vote(uint _candidateId) public {\r\n        // ����\r\n        require(!voters[msg.sender]);\r\n        require(_candidateId > 0 && _candidateId <= candidateCount);\r\n        // ��¼�û��Ѿ�ͶƱ��\r\n        voters[msg.sender] = true;\r\n        candidates[_candidateId].voteCount++;\r\n        emit votedEvent(_candidateId);\r\n    }\r\n}",
  "sourcePath": "D:\\VOTE\\contracts\\Election.sol",
  "compiler": {
    "name": "solc",
    "version": "0.4.25+commit.59dbf8f1.Emscripten.clang"
  },
  "schemaVersion": "2.0.2",
  "updatedAt": "2019-01-03T11:05:04.341Z"
}