{
  "contractName": "VoteBase",
  "abi": [
    {
      "constant": true,
      "inputs": [
        {
          "name": "",
          "type": "uint256"
        }
      ],
      "name": "Projects",
      "outputs": [
        {
          "name": "name",
          "type": "bytes32"
        },
        {
          "name": "votenum",
          "type": "uint256"
        }
      ],
      "payable": false,
      "stateMutability": "view",
      "type": "function"
    },
    {
      "constant": true,
      "inputs": [],
      "name": "persons",
      "outputs": [
        {
          "name": "",
          "type": "address"
        }
      ],
      "payable": false,
      "stateMutability": "view",
      "type": "function"
    },
    {
      "constant": true,
      "inputs": [
        {
          "name": "",
          "type": "address"
        }
      ],
      "name": "voters",
      "outputs": [
        {
          "name": "Amount",
          "type": "uint256"
        },
        {
          "name": "Isvoted",
          "type": "bool"
        },
        {
          "name": "vote",
          "type": "uint256"
        }
      ],
      "payable": false,
      "stateMutability": "view",
      "type": "function"
    },
    {
      "constant": false,
      "inputs": [
        {
          "name": "ProjectsNames",
          "type": "bytes32[]"
        }
      ],
      "name": "voteBase",
      "outputs": [],
      "payable": false,
      "stateMutability": "nonpayable",
      "type": "function"
    },
    {
      "constant": false,
      "inputs": [
        {
          "name": "voter",
          "type": "address"
        }
      ],
      "name": "givethevotetovoter",
      "outputs": [],
      "payable": false,
      "stateMutability": "nonpayable",
      "type": "function"
    },
    {
      "constant": false,
      "inputs": [
        {
          "name": "project",
          "type": "uint256"
        }
      ],
      "name": "vote",
      "outputs": [],
      "payable": false,
      "stateMutability": "nonpayable",
      "type": "function"
    },
    {
      "constant": true,
      "inputs": [],
      "name": "WinProject",
      "outputs": [
        {
          "name": "WinProject_",
          "type": "uint256"
        }
      ],
      "payable": false,
      "stateMutability": "view",
      "type": "function"
    },
    {
      "constant": true,
      "inputs": [],
      "name": "WinprojectShow",
      "outputs": [
        {
          "name": "WinProjectName_",
          "type": "bytes32"
        }
      ],
      "payable": false,
      "stateMutability": "view",
      "type": "function"
    }
  ],
  "bytecode": "0x608060405234801561001057600080fd5b50610784806100206000396000f30060806040526004361061008e576000357c0100000000000000000000000000000000000000000000000000000000900463ffffffff1680630121b93f1461009357806309f8e9a1146100c057806321b2416c146100f35780635286d00a146101435780636355fc3b1461019a5780638219b1f214610200578063a3ec138d1461022b578063ceb72b3314610294575b600080fd5b34801561009f57600080fd5b506100be600480360381019080803590602001909291905050506102d7565b005b3480156100cc57600080fd5b506100d5610394565b60405180826000191660001916815260200191505060405180910390f35b3480156100ff57600080fd5b5061011e600480360381019080803590602001909291905050506103c3565b6040518083600019166000191681526020018281526020019250505060405180910390f35b34801561014f57600080fd5b506101586103f6565b604051808273ffffffffffffffffffffffffffffffffffffffff1673ffffffffffffffffffffffffffffffffffffffff16815260200191505060405180910390f35b3480156101a657600080fd5b506101fe6004803603810190808035906020019082018035906020019080806020026020016040519081016040528093929190818152602001838360200280828437820191505050505050919291929050505061041b565b005b34801561020c57600080fd5b5061021561055f565b6040518082815260200191505060405180910390f35b34801561023757600080fd5b5061026c600480360381019080803573ffffffffffffffffffffffffffffffffffffffff1690602001909291905050506105da565b6040518084815260200183151515158152602001828152602001935050505060405180910390f35b3480156102a057600080fd5b506102d5600480360381019080803573ffffffffffffffffffffffffffffffffffffffff169060200190929190505050610611565b005b6000600160003373ffffffffffffffffffffffffffffffffffffffff1673ffffffffffffffffffffffffffffffffffffffff16815260200190815260200160002090508060010160009054906101000a900460ff1615151561033857600080fd5b60018160010160006101000a81548160ff021916908315150217905550818160020181905550806000015460028381548110151561037257fe5b9060005260206000209060020201600101600082825401925050819055505050565b600060026103a061055f565b8154811015156103ac57fe5b906000526020600020906002020160000154905090565b6002818154811015156103d257fe5b90600052602060002090600202016000915090508060000154908060010154905082565b6000809054906101000a900473ffffffffffffffffffffffffffffffffffffffff1681565b6000336000806101000a81548173ffffffffffffffffffffffffffffffffffffffff021916908373ffffffffffffffffffffffffffffffffffffffff16021790555060018060008060009054906101000a900473ffffffffffffffffffffffffffffffffffffffff1673ffffffffffffffffffffffffffffffffffffffff1673ffffffffffffffffffffffffffffffffffffffff16815260200190815260200160002060000181905550600090505b815181101561055b576002604080519081016040528084848151811015156104ee57fe5b90602001906020020151600019168152602001600081525090806001815401808255809150509060018203906000526020600020906002020160009091929091909150600082015181600001906000191690556020820151816001015550505080806001019150506104ca565b5050565b6000806000809150600090505b6002805490508110156105d5578160028281548110151561058957fe5b90600052602060002090600202016001015411156105c8576002818154811015156105b057fe5b90600052602060002090600202016001015491508092505b808060010191505061056c565b505090565b60016020528060005260406000206000915090508060000154908060010160009054906101000a900460ff16908060020154905083565b6000809054906101000a900473ffffffffffffffffffffffffffffffffffffffff1673ffffffffffffffffffffffffffffffffffffffff163373ffffffffffffffffffffffffffffffffffffffff161480156106ba5750600160008273ffffffffffffffffffffffffffffffffffffffff1673ffffffffffffffffffffffffffffffffffffffff16815260200190815260200160002060010160009054906101000a900460ff16155b801561070857506000600160008373ffffffffffffffffffffffffffffffffffffffff1673ffffffffffffffffffffffffffffffffffffffff16815260200190815260200160002060000154145b151561071357600080fd5b60018060008373ffffffffffffffffffffffffffffffffffffffff1673ffffffffffffffffffffffffffffffffffffffff1681526020019081526020016000205050505600a165627a7a72305820f2b2c616dbfddb2c326f72c26aef70234f9767046e572f92c99d062c29241e410029",
  "source": "pragma solidity ^0.4.25;\n//��Լ����\ncontract VoteBase {\n    //����ͶƱ�ߣ�����ͶƱ�߾߱�Ʊ�����Ƿ�ͶƱ��Ͷʲô�ļ����\n    struct voter {\n        uint Amount; //Ʊ���ͶƱ�����߱���Ʊ��\n        bool Isvoted; //�Ƿ�ͶƱ\n        uint vote;\n    }\n    \n    //����ͶƱ��Ŀ�ṹ��������Ŀ��������������ǰ�ۼ�Ʊ��\n    struct Project {\n        bytes32 name;   //��Ŀ���ƻ�����\n        uint votenum;   //Ʊ��\n    }\n    //����ͶƱ������\n    address public persons;\n    //����ַӳ�䵽ͶƱ����\n    mapping (address => voter) public voters;\n    //�鰸ָ��\n    Project[] public Projects;\n    \n    function voteBase (bytes32[] ProjectsNames) public {\n        persons = msg.sender;\n        voters[persons].Amount = 1;\n        \n        for (uint i = 0; i < ProjectsNames.length; i++) {\n            Projects.push(Project({\n                name: ProjectsNames[i],\n                votenum: 0\n            }));\n        }\n    }\n    \n    //���ݵ�ַ����Ȩ��\n    function givethevotetovoter (address voter) public {\n        \n        require(\n            (msg.sender == persons) &&\n            !voters[voter].Isvoted &&\n            (voters[voter].Amount == 0)\n            );\n            voters[voter].Amount == 1;\n    }\n    //ͶƱ����\n    function vote(uint project) public {\n        voter storage sender = voters[msg.sender];\n        require(!sender.Isvoted);\n        sender.Isvoted = true;\n        sender.vote = project;\n        \n        Projects[project].votenum += sender.Amount;\n    }\n    //�鰸��ʤ��\n    function WinProject() public view\n        returns (uint WinProject_) \n        {\n            uint WinProjectCount = 0;\n            for (uint p = 0; p < Projects.length; p++) {\n                if (Projects[p].votenum > WinProjectCount) {\n                    WinProjectCount = Projects[p].votenum;\n                    WinProject_ = p;\n                }\n            }\n        }\n        \n        \n    //���Ʊ����ߵ���Ŀ\n    function WinprojectShow() public view\n        returns(bytes32 WinProjectName_) {\n            WinProjectName_ = Projects[WinProject()].name;\n        }\n}",
  "sourcePath": "D:\\VOTE\\contracts\\VoteBase.sol",
  "compiler": {
    "name": "solc",
    "version": "0.4.25+commit.59dbf8f1.Emscripten.clang"
  },
  "schemaVersion": "2.0.2",
  "updatedAt": "2019-01-02T21:13:44.694Z"
}